:1000000012C02AC029C028C027C026C025C024C0CD
:1000100023C022C021C020C01FC01EC01DC01CC0E4
:100020001BC01AC019C011241FBECFEDCDBF10E0F8
:10003000A0E6B0E0EAE5F1E002C005900D92A0373D
:10004000B107D9F720E0A0E7B0E001C01D92AC37BE
:10005000B207E1F769D07FC0D3CF00C0B89AB99A90
:100060000895E82FF0E0EC59FF4F80810895C09A81
:10007000C19AC198C0980895C098C198C09AC19A71
:10008000089598E0C09880FF02C0C19A01C0C1984D
:100090008695C09A9150B1F7C098C19AC09AB99804
:1000A00080E18A95F1F700C0B19902C0B99AC19870
:1000B00080E18A95F1F700C0B99A80E18A95F1F75D
:1000C00000C00895CF93DF93D82FC62FD0DF84E4EC
:1000D000D8DFD2DFCCDF8D2F806CD3DF8C2FD1DF48
:1000E000CBDFC5DF88E9CDDFDF91CF91C5CF0F939F
:1000F0001F93CF93DF938C01BADF80E4C2DFBCDFB4
:10010000B6DF80ECBEDFE8010C5F1F4F8991B9DFDD
:10011000C017D107D9F7B0DFAADF88E9B2DFDF91D6
:10012000CF911F910F91A8CFCF93DF93CDB7DD274C
:10013000C450CDBF93DF8091600090916100A09189
:100140006200B091630089839A83AB83BC83CE0144
:0A0150000196CDDFFCCFF894FFCF3D
:10015A00010880003F065B4F666D7D077F6F004098
:00000001FF
